{
  "contractName": "VoteContract",
  "abi": [
    {
      "inputs": [
        {
          "internalType": "address",
          "name": "",
          "type": "address"
        }
      ],
      "name": "hasVoted",
      "outputs": [
        {
          "internalType": "bool",
          "name": "",
          "type": "bool"
        }
      ],
      "stateMutability": "view",
      "type": "function",
      "constant": true
    },
    {
      "inputs": [
        {
          "internalType": "string",
          "name": "",
          "type": "string"
        }
      ],
      "name": "votes",
      "outputs": [
        {
          "internalType": "uint256",
          "name": "",
          "type": "uint256"
        }
      ],
      "stateMutability": "view",
      "type": "function",
      "constant": true
    },
    {
      "inputs": [
        {
          "internalType": "string",
          "name": "candidate",
          "type": "string"
        }
      ],
      "name": "vote",
      "outputs": [],
      "stateMutability": "nonpayable",
      "type": "function"
    },
    {
      "inputs": [
        {
          "internalType": "string",
          "name": "candidate",
          "type": "string"
        }
      ],
      "name": "getVotes",
      "outputs": [
        {
          "internalType": "uint256",
          "name": "",
          "type": "uint256"
        }
      ],
      "stateMutability": "view",
      "type": "function",
      "constant": true
    }
  ],
  "bytecode": "0x608060405234801561001057600080fd5b506106d7806100206000396000f3fe608060405234801561001057600080fd5b506004361061004c5760003560e01c806309eef43e14610051578063805265e514610081578063b99ef1fa146100b1578063fc36e15b146100e1575b600080fd5b61006b600480360381019061006691906102ff565b6100fd565b6040516100789190610347565b60405180910390f35b61009b600480360381019061009691906104a8565b61011d565b6040516100a8919061050a565b60405180910390f35b6100cb60048036038101906100c691906104a8565b610145565b6040516100d8919061050a565b60405180910390f35b6100fb60048036038101906100f691906104a8565b610173565b005b60006020528060005260406000206000915054906101000a900460ff1681565b600060018260405161012f9190610596565b9081526020016040518091039020549050919050565b6001818051602081018201805184825260208301602085012081835280955050505050506000915090505481565b6000803373ffffffffffffffffffffffffffffffffffffffff1673ffffffffffffffffffffffffffffffffffffffff16815260200190815260200160002060009054906101000a900460ff16156101ff576040517f08c379a00000000000000000000000000000000000000000000000000000000081526004016101f69061060a565b60405180910390fd5b60018160405161020f9190610596565b9081526020016040518091039020600081548092919061022e90610659565b919050555060016000803373ffffffffffffffffffffffffffffffffffffffff1673ffffffffffffffffffffffffffffffffffffffff16815260200190815260200160002060006101000a81548160ff02191690831515021790555050565b6000604051905090565b600080fd5b600080fd5b600073ffffffffffffffffffffffffffffffffffffffff82169050919050565b60006102cc826102a1565b9050919050565b6102dc816102c1565b81146102e757600080fd5b50565b6000813590506102f9816102d3565b92915050565b60006020828403121561031557610314610297565b5b6000610323848285016102ea565b91505092915050565b60008115159050919050565b6103418161032c565b82525050565b600060208201905061035c6000830184610338565b92915050565b600080fd5b600080fd5b6000601f19601f8301169050919050565b7f4e487b7100000000000000000000000000000000000000000000000000000000600052604160045260246000fd5b6103b58261036c565b810181811067ffffffffffffffff821117156103d4576103d361037d565b5b80604052505050565b60006103e761028d565b90506103f382826103ac565b919050565b600067ffffffffffffffff8211156104135761041261037d565b5b61041c8261036c565b9050602081019050919050565b82818337600083830152505050565b600061044b610446846103f8565b6103dd565b90508281526020810184848401111561046757610466610367565b5b610472848285610429565b509392505050565b600082601f83011261048f5761048e610362565b5b813561049f848260208601610438565b91505092915050565b6000602082840312156104be576104bd610297565b5b600082013567ffffffffffffffff8111156104dc576104db61029c565b5b6104e88482850161047a565b91505092915050565b6000819050919050565b610504816104f1565b82525050565b600060208201905061051f60008301846104fb565b92915050565b600081519050919050565b600081905092915050565b60005b8381101561055957808201518184015260208101905061053e565b60008484015250505050565b600061057082610525565b61057a8185610530565b935061058a81856020860161053b565b80840191505092915050565b60006105a28284610565565b915081905092915050565b600082825260208201905092915050565b7f59612068617320766f7461646f2e000000000000000000000000000000000000600082015250565b60006105f4600e836105ad565b91506105ff826105be565b602082019050919050565b60006020820190508181036000830152610623816105e7565b9050919050565b7f4e487b7100000000000000000000000000000000000000000000000000000000600052601160045260246000fd5b6000610664826104f1565b91507fffffffffffffffffffffffffffffffffffffffffffffffffffffffffffffffff82036106965761069561062a565b5b60018201905091905056fea2646970667358221220d2879ca02fff7dd4cbfac6d8b9faef3b74605b2feb3ef674a21e00000310e3fd64736f6c63430008130033",
  "immutableReferences": {},
  "source": "// SPDX-License-Identifier: MIT \r\npragma solidity ^0.8.19;\r\n\r\ncontract VoteContract {\r\n    mapping(address => bool) public hasVoted;\r\n    mapping(string => uint) public votes;\r\n\r\n    function vote(string memory candidate) public {\r\n        require(!hasVoted[msg.sender], \"Ya has votado.\");\r\n        votes[candidate]++;\r\n        hasVoted[msg.sender] = true;\r\n    }\r\n\r\n    function getVotes(string memory candidate) public view returns (uint) {\r\n        return votes[candidate];\r\n    }\r\n}\r\n",
  "sourcePath": "D:\\Backend\\BlockChain\\vote-blockchain\\contracts\\VoteContract.sol",
  "compiler": {
    "name": "solc",
    "version": "0.8.19+commit.7dd6d404.Emscripten.clang"
  },
  "schemaVersion": "3.4.16",
  "updatedAt": "2024-11-08T07:27:08.469Z",
  "networkType": "ethereum",
  "devdoc": {
    "kind": "dev",
    "methods": {},
    "version": 1
  },
  "userdoc": {
    "kind": "user",
    "methods": {},
    "version": 1
  }
}